:020000040800F2
:10000000400A002001010008FB3A00084B2D0008BF
:10001000F93A0008090800086942000800000000D9
:100020000000000000000000000000006D3D00081E
:100030004308000800000000FD3A0008853D000864
:100040001B0100081B0100081B0100081B01000820
:100050001B0100081B0100081B0100081B01000810
:100060001B0100081B0100081B0100081B01000800
:100070000D0800081B0100081B0100081B010008F7
:100080001B0100081B0100081B0100081B010008E0
:100090001B0100081B0100081B0100081B010008D0
:1000A0001B0100081B0100081B0100081B010008C0
:1000B000013E00080D3E0008193E00081B01000823
:1000C0001B010008592D00084D2D0008213B000898
:1000D0001B0100081B010008314200081B01000839
:1000E0001B0100081B0100081B010008DFF80CD0F1
:1000F00000F078FB0048004739440008400A00201F
:100100000648804706480047FEE7FEE7FEE7FEE7B1
:10011000FEE7FEE7FEE7FEE7FEE7FEE7FF3D00083D
:10012000ED000008202A04DB203A21FA02F0002129
:10013000704721FA02F3D040C2F1200291400843F7
:100140001946704740EA01039B0703D009E008C93C
:10015000121F08C0042AFAD203E011F8013B00F88C
:10016000013B521EF9D27047D2B201E000F8012BD8
:10017000491EFBD270470022F6E710B513460A4627
:1001800004461946FFF7F0FF204610BD80EA010241
:1001900010B502F00043400022D04A001FD0010EEB
:1001A00001EB1261C0F35600C2F3560240F40000A6
:1001B00042F40002A0FB022000047F39140400D0A6
:1001C000401C50EA124001D44000491EC2B20C0645
:1001D00004EBD010401C4008802A02D003E000202D
:1001E00010BD20F00100002900DA0020184310BDE6
:1001F0002DE9FE4F804681EA0300C00F0C460090B7
:1002000021F0004123F00045B8EB0200A94105D2DE
:100210004046214690461C460B46024623F00040CD
:10022000104347D0270DC7F30A00C3F30A510290C9
:10023000401A019040286BDAC3F3130040F4801B8E
:100240000098924620B10023D2EB030A63EB0B0B1C
:1002500001985946C0F14002504600F00DFA06469A
:100260000D4650465946019A00F015FA10EB080069
:100270006141002487EA115284EAE7731A4340D0AF
:10028000009A62B3019A012A4FEA075215DC001B5B
:1002900061EB02014FF0004202EA0752CDE9004251
:1002A000001C41F5801132462B4600F04CFA03B099
:1002B000BDE8F08F40462146F9E7001B61EB0201E3
:1002C000001C41F5801300185B412018A2F50017AF
:1002D00047EB030140EAD570B6196D4111E06D0896
:1002E0004FEA360645EAC0754FEA0752001B61EB3C
:1002F0000201001C41F5801149084FEA3000001945
:10030000514132462B4603B0BDE8F04F00F00CBA25
:100310000098012240000023D0EB020263EBE0735F
:10032000009821464FEAE074B8EB000061EB04014D
:10033000E9E783F000435BE781F0004158E72DE9EE
:10034000FE4F81EA030404F0004421F000410094D0
:100350004FF0000B23F0004350EA01045ED052EA54
:1003600003045BD0C3F30A54C1F30A552C44A4F22E
:10037000F3340194A0FB0254C1F3130141F4801142
:10038000C3F3130343F4801301FB024400FB034E49
:10039000840A970A44EA815447EA8357A4FB076812
:1003A00002958D0A05FB07854FEA932C04FB0C543C
:1003B0002705029D4FEA065847EA1637B5EB0805B0
:1003C0006EEB070C870E920E47EA811742EA831202
:1003D000A7FB0201B6EB0B0164EB00042B0D43EA13
:1003E0000C335E1844EB1C50DA465146E7FB020121
:1003F000C5F313044FEA0B3343EA14534FEA0432B4
:10040000019C43EA0603A4F10C040294009CCDE98C
:1004100000B400F098F903B0BDE8F08F0020014669
:10042000F9E72DE9F04D81EA030404F0004B21F0D7
:10043000004514464FF0000A23F0004150EA05023F
:1004400020D054EA01021DD0C5F30A570246C5F375
:100450001303C1F31300C1F30A5640F4801543F4AB
:100460008013A7EB0608101BD64608F2FD3873EB85
:10047000050002D308F1010801E092185B41B8F1D0
:10048000000F03DA00200146BDE8F08D00204FF494
:100490008011064684460EE0171B73EB050705D353
:1004A000121B63EB050306434CEA010C49084FEAB3
:1004B000300092185B4150EA0107EDD152EA030087
:1004C00012D082EA040083EA0501084305D0101B1C
:1004D000AB4106D20122002306E000224FF0004388
:1004E00002E06FF0010253101AEB06004CEB0851CA
:1004F00010EB0A0041EB0B01BDE8F04D00F014B920
:1005000070B521F0004303430CD0C1F30A55002419
:10051000D5EB040564EB0403D617AD1AB34102DB37
:100520000020014670BD201841EB025170BD0EB590
:10053000C10F80EAE0700844CA07002140F233434B
:100540008DE80E000A460B4600F0FDF803B000BD32
:1005500070B5C1F30A5201F000450024C1F3130144
:1005600040F2FF3341F480119A4201DA002070BD5D
:1005700040F233439A42A2F2334203DC5242FFF785
:10058000D1FD00E090402C43F1D0404270BD00F01E
:10059000004230F000400AD0C10D01F56071C0F397
:1005A000160042EA0151C20840071143704700207B
:1005B0000146704730B5041E71F1000404DB4FF0B2
:1005C0000044404264EB0101141E73F1000405DB9A
:1005D0001C464FF00043524263EB04038B4208BFBA
:1005E000824230BD30B5041E71F1000404DB4FF0CF
:1005F0000044404264EB0101141E73F1000405DB6A
:100600001C464FF00043524263EB0403994208BF7B
:10061000904230BD01F0004330B421F0004150EA77
:10062000010206D00A0DA2F56072C1F31301002A7F
:1006300002DC30BC00207047440F44EAC104C10012
:10064000E01830BC00EBC25000F037B830B50B46B4
:10065000014600202022012409E021FA02F59D42F2
:1006600005D303FA02F5491B04FA02F52844151EC6
:10067000A2F10102F1DC30BD202A04DB203A00FAAD
:1006800002F1002070479140C2F1200320FA03F3E9
:10069000194390407047202A06DBCB17203A41FAD5
:1006A00002F043EAE07306E041FA02F3D040C2F1FF
:1006B000200291400843194670470029A8BF70479F
:1006C000401C490008BF20F00100704710B4B0FA88
:1006D00080FC00FA0CF050EA010404BF10BC704723
:1006E00049B1CCF1200421FA04F411FA0CF118BF3D
:1006F000012121430843A3EB0C01CB1D4FEA00610C
:100700004FEA102042BF002010BC704700EBC350DE
:1007100010440029A4BF10BC7047401C490008BF0A
:1007200020F0010010BC704710B5141E73F10004D6
:1007300008DA401C41F1000192185B411A4301D1D3
:1007400020F0010010BD2DE9F04D92469B4611B1FD
:10075000B1FA81F202E0B0FA80F220329046FFF75F
:100760008BFF04460F4640EA0A0041EA0B0153465C
:100770005A46084313D0114653EA010019D0C8F174
:1007800040025046FFF7CEFC05460E4650465946FD
:100790004246FFF771FF084305D0012004E02046E0
:1007A0003946BDE8F08D0020054346EAE0762C434B
:1007B00037430A986305E40AA0EB08000022FD0A0B
:1007C00044EA47540A3002D500200146E9E7010512
:1007D00010196941DDE9084500196941BDE8F04D8E
:1007E000A2E70000064C074D06E0E06840F0010378
:1007F00094E8070098471034AC42F6D3FFF77AFC30
:100800003048000850480008FEE70000014800F0AA
:100810007DB80000D804002030B590F84050012485
:10082000AC40C56B6C60046863604368102B036860
:1008300003D099600068C26030BD9A600068C160F2
:1008400030BD70474FF08040406A704701480068F3
:10085000704700002404004001A003F007BD000021
:100860000A0D4572726F72210A0D000010B590F8E2
:1008700021100024022903D00421816301243DE0DA
:1008800001680A6822F00E020A6001680A6822F014
:1008900001020A601A4A0168914201D1012121E056
:1008A000174A1432914201D110211BE0144A283218
:1008B000914201D1891515E0114A3C32914201D192
:1008C00089140FE00E4A5032914202D14FF4803128
:1008D00008E00B4A6432914202D14FF4801101E0EA
:1008E0004FF08071064A083A5160012180F82110CA
:1008F000002180F82010416B01B18847204610BDCF
:100900000800024090F82100704700002DE9F05FD8
:10091000C16B0C6801680B68D0F840C0042202FA71
:100920000CF2494DDFF824A1494E4A4FDFF828B1B7
:10093000DFF828E122422CD05A072AD50A6892060D
:1009400003D40A6822F004020A600168A94201D1B6
:10095000042219E0514501D1402215E0B14202D1F3
:100960004FF4806210E0B94202D14FF480420BE0B4
:10097000594502D14FF4802206E0714502D14FF46F
:10098000800201E04FF080622F4908394A60C16A55
:100990003BE04FF0020808FA0CF818EA040F4FF099
:1009A00000094FF0010235D05FEA837832D50B6839
:1009B0009B0605D40B6823F00A030B6080F8212006
:1009C0000168A94201D1022219E0514501D120223A
:1009D00015E0B14202D14FF4007210E0B94202D1E9
:1009E0004FF400520BE0594502D14FF4003206E0BB
:1009F000714502D14FF4001201E04FF0007212492C
:100A000008394A6080F82090816A00291AD0BDE830
:100A1000F05F0847082505FA0CF5254212D01B07A0
:100A200010D50B6823F00E030B6090F84010C36BD9
:100A300002FA01F15960826380F8212080F8209049
:100A4000016BE2E7BDE8F09F080002401C00024095
:100A50003000024044000240580002406C00024056
:100A600030B528B308C8134914221944B1FBF2F178
:100A70008900C16310498163022141771A6843F6F6
:100A8000F0718A43D0E900142143D0E902452C4398
:100A9000214304692143446921438469214311436B
:100AA000196000214163012242770177084630BD79
:100AB000012030BDF8FFFDBF0000024070B50446C4
:100AC00090F82000002501280CD0012084F8200097
:100AD00094F821600020012E06D084F82000022521
:100AE000284670BD022070BD022684F82160A063F4
:100AF0002068066826F0010606602046FFF78CFE97
:100B0000E06A00282068016802D041F00E0106E08A
:100B100021F0040101602068016841F00A010160D0
:100B20002068016841F001010160D9E72DE9F84F23
:100B3000DFF8B891002409F1040A0AF1040B2346F6
:100B40000F270BF1040EC9E00125A5402A40AA4257
:100B50007DD1674ED1F804C0ACEB0608B44532D065
:100B600014DCBCF1030F3AD009DCBCF1000F2AD031
:100B7000BCF1010F1CD0BCF1020F31D11DE0BCF162
:100B8000110F17D0BCF1120F2AD119E0B8F5881F48
:100B900019D006DCB8F5803F15D0B8F5801F1FD1FD
:100BA00011E0B8F5001F0ED0B8F5041F18D10AE007
:100BB000CB6815E0CB681B1D12E0CB6808330FE053
:100BC000CB680C330CE08B682BB1012B4FF0080382
:100BD00003D0456104E0042302E0056100E0002346
:100BE000FF2A01D8064601E000F104064FEA840519
:100BF00001D9A5F12005D6F8008007FA05FC28EAFE
:100C00000C0803FA05F548EA0508C6F800804D68A7
:100C1000ED0062D5374DAE6946F00106AE61AD69B3
:100C200024F0030605F001050095334D06EB050C95
:100C3000DCF80850A607360F07FA06F825EA08057B
:100C4000DFF8B880404503D14FF0000817E044E0DA
:100C5000DFF8AC80404502D14FF001080FE0DFF82B
:100C6000A480404502D14FF0020808E0DFF89880E8
:100C7000404502D14FF0030801E04FF0040808FAA4
:100C800006F848EA0508CCF808804D68D9F80060F5
:100C9000ED034D4601D5164300E096432E604D68A6
:100CA000DAF80060AD03554601D5164300E09643DF
:100CB0002E604D68DBF80060ED025D4601D51643FD
:100CC00000E096432E604D68DEF80060AD02754688
:100CD00001D5164300E096432E60641C0D682A4639
:100CE000E5407FF431AFBDE8F88F0000000401401B
:100CF00000001110001002400000014000080140F7
:100D0000000C0140001001400014014080680840C0
:100D100000D0012070470AB1016170470904FBE768
:100D200001488068704700009800002070477047B5
:100D30002DE9F041016804464A694E6890F83E008A
:100D40000025D743FA050BD4F243D20508D46FF43B
:100D5000807201254A6121680A6842F400420A60F3
:100D6000B90508D4F143C90505D422686FF40071B0
:100D700045F002055161790525D4F143C90522D416
:100D8000638D94F83D10226B202808D13BB92129AE
:100D900010D029290ED0282901D1212A0AD0226871
:100DA0006FF48061516145F00405102806D0402899
:100DB00004D008E0204602F095FB04E020680168BA
:100DC00041F400710160380508D4F043C00505D432
:100DD00021686FF4006045F008054861002D07D0D8
:100DE000206C284320642046BDE8F04102F018B88A
:100DF000BDE8F0812DE9F041026800245168C76A1E
:100E000090F83E5090F83D60102D1CD0402D1AD027
:100E1000036C002B7ED053694FF02805DB439F07FE
:100E200079D4CF43BF0576D4016C01B1946990F8B1
:100E30003D3000219D430B466ED0C91E516180F8A4
:100E40003C30BDE8F081946953694FF42A0CDB43D0
:100E50005FEAC37E4FF02A4604D06745F1D0B7421F
:100E6000EFD010E0CF43BF050DD4C16A614501D179
:100E7000012103E0C16AB14201D10821C162BDE88C
:100E8000F04102F099BA1E0716D4CE43B60513D42A
:100E9000416CC9B21161416B11B9826B002AD0D08B
:100EA000896A19B9816B896A0029CAD000684168CA
:100EB00041F400614160C4E79E0706D4CE43B60505
:100EC00003D4BDE8F04102F0CBB9E44352686407B3
:100ED0004FEA02521BD4002AB3DB1A0608D4CA43D5
:100EE000520505D45A0705D5BDE8F04102F05CB9BA
:100EF0005A07A6D4C9438905A3D4102D03D0BDE851
:100F0000F04102F09FBABDE8F04102F013B9002AA7
:100F100097DB02E015E029E015E05A0608D4CA4341
:100F2000520505D45A0705D5BDE8F04102F08EB848
:100F30005A0786D4C943890583D4BDE8F04102F03D
:100F40001BB8946967E7556825F480655560E243EE
:100F5000540700D50121120601D5828900E0028BD9
:100F600080F83C3092B2FFF7E2FE6AE7DC0606D476
:100F7000CC43A40503D4BDE8F04102F0F5BA212E1C
:100F800027D0292E25D05C0655D4CC43640552D4F5
:100F90005B0752D590F83D10438D002B8BD0126922
:100FA000436A1A70426A521C4262428D521E428546
:100FB000428D002AD9D12A29D7D101684A6822F462
:100FC00080624A602221016380F83D5000F076F98A
:100FD00037E71C0623D4CC43640520D45B0720D517
:100FE00090F83D10438D002BBFD0436A1B781361EE
:100FF000426A521C4262428D521E4285428D002A34
:10100000B3D12929B1D101684A6822F480624A60CB
:101010002121016380F83D5000F051F911E75B0791
:10102000A3D4C9438905A0D4418D00299DD0416A2C
:10103000097811610AE05B0797D4C943890594D404
:10104000418D002991D01169426A1170416A491C91
:101050004162418D491E4185F3E6704770B5040039
:1010600025D094F83D00002520B984F83C50204656
:1010700000F0BEF8242084F83D002068016821F0CB
:10108000010101602068016841F4004101602068AD
:10109000016821F40041016000F038FB4D4A6168AD
:1010A000914201D84C4900E04C49884201D20120CC
:1010B00070BD4B492368B0FBF1F15E6826F03F0636
:1010C0000E435E606368934206D94FF496735943AA
:1010D0004FF47A73B1FBF3F12368491C1E6A26F0C2
:1010E0003F06314319626168914210D84900401EA1
:1010F000B0FBF1F2521CC2F30B02042A01D204200D
:1011000022E0B0FBF1F0401CC0F30B001CE0A26831
:10111000F2B301EBC10303EB0116431EB3FBF6F37D
:101120005B1C43F480431B0549D092B301EBC10221
:1011300002EB0111401EB0FBF1F0401CC0F30B00AC
:1011400040F4804040F400402168CA694CF6FF73C7
:101150009A431043C861D4E907100143206802682C
:1011600022F0C00211430160D4E903010143206869
:10117000826848F2FF339A4311438160D4E9050144
:1011800008432168CA6822F0FF021043C86001E0EA
:101190000EE016E02068016841F00101016025645D
:1011A000202084F83D00256384F83E50002070BD67
:1011B00001EB4106431EB3FBF6F35B1CB3E70120D2
:1011C000C2E701EB4101401EB0FBF1F0401CC0F34F
:1011D0000B00B7E7A086010080841E0000093D00D7
:1011E00040420F00704770477047704770470000DB
:1011F00030B585B0002100910191029103912A4DF3
:1012000003682A4C122103222948AB421FD1A3694B
:1012100043F00803A361A369039203F00803049356
:101220001302CDE900316946FFF780FC214841688F
:1012300041F0E06141F002014160E06940F40010DA
:10124000E061E06900F40010049005B030BD1A4D73
:10125000AB42FAD1A36943F00803A361A3690392E7
:1012600003F0080304934FF44063CDE9003169466D
:10127000FFF75CFCE06940F48000E061E069002277
:1012800000F4800004901146212000F07FF8212016
:1012900000F06EF800221146222000F077F822209C
:1012A00000F066F8D1E70000005400400010024052
:1012B000000C01400000014000580040704770479A
:1012C00002488168027811448160704798000020CC
:1012D000074810B5016841F010010160032000F0DB
:1012E00075F8002000F006F800F024F8002010BD8A
:1012F0000020024070B50D4D04464FF47A712878F5
:10130000B1FBF0F00A490968B1FBF0F000F056FEBD
:1013100048B9102C07D200222146501E00F036F8A2
:1013200000206C6070BD012070BD0000980000209E
:10133000A40000200C4808B5816941F001018161D9
:10134000816901F001010091C16941F08051C161E1
:10135000C06900F0805000900448416821F0E061CD
:1013600041F00071416008BD0010024000000140E2
:10137000002809DB00F01F02012191404009800094
:1013800000F1E020C0F8001170470000F0B40E4BEF
:101390001B680C46C3F30223C3F10705042D00D9D3
:1013A0000425191D072901D2002300E0DB1E0126B8
:1013B00006FA05F1491E214099409E40761E1640CE
:1013C0003143F0BC02F062BF0CED00E0064900F0D2
:1013D000070208684FF6FF03184040EA0220034A5C
:1013E00010430860704700000CED00E00000FA05B3
:1013F0002DE9F04186B0040004D094F8A90200253C
:1014000020B108E0012006B0BDE8F08184F8A852C0
:10141000204600F05BF8032084F8A902206802F05F
:101420001AFF04F11001142288466846FEF78AFE6E
:1014300094E80F0002F002FF0226D0BB00212068D2
:1014400002F010FF002001270FE000BF00EB800139
:1014500004EBC10181F8297001F8280FC881CD7013
:101460000D614D61401CC0B28D6161688142EDD853
:10147000002011E000EB800104EBC10181F869510B
:1014800081F8680181F86B51C1F87851C1F87C513D
:10149000401CC0B2C1F8805161688142EAD8142270
:1014A00041466846FEF74EFE94E80F0002F0CAFE81
:1014B00010B184F8A962A5E784F8245084F8A972D1
:1014C000206802F0BDFE00209DE7000008B500681E
:1014D0000649884208D10648C16941F40001C1614A
:1014E000C06900F40000009008BD0000005C0040EE
:1014F000001002402DE9F84305460078354CC0073E
:1015000054D0E0690026C00008D4E06940F0805063
:10151000E061E069012600F0805000902E480168EB
:10152000C90512D40168804641F480710160FFF75B
:10153000F7FB074605E000BFFFF7F2FBC01B64287E
:1015400023D8D8F80000C005F6D5206A10F4407002
:1015500021D0A98801F4407181421CD0206A1F4922
:10156000012220F440700A6000220A602062C00755
:1015700011D0FFF7D5FB074641F2883808E000BFDD
:10158000FFF7CEFBC11B414502D90320BDE8F8831C
:10159000206A8007F4D5206A696820F44070084307
:1015A00020621EB1E06920F08050E0612878800759
:1015B00005D56068A96820F4404008436060287839
:1015C000C00605D56068E96820F4800008436060C3
:1015D0000020DBE70010024000700040400442425F
:1015E0002DE9F0470F46050061D0434E306800F00A
:1015F0000700B84209D2306820F007003843306055
:10160000306800F00700B84251D128683B4C810790
:1016100012D5400703D5606840F4E0606060287828
:10162000000703D5606840F4605060606068A96896
:1016300020F0F000084360602878C00728D0686870
:10164000012810D02168022810D0890700292EDA3D
:10165000616821F0030101436160FFF761FB80468F
:1016600041F288390DE021688903EFE78901EDE750
:10167000FFF756FBA0EB0801494502D90320BDE85E
:10168000F0876068696800F00C00B0EB810FEFD163
:10169000306800F00700B8420BD9306820F007002E
:1016A00038433060306800F00700B84201D00120B4
:1016B000E5E72878400705D56068E96820F4E06030
:1016C000084360602878000706D56068296920F41F
:1016D000605040EAC100606000F038F86168084A74
:1016E000C1F30311515CC840064908600648006810
:1016F000FFF700FE0020C2E7002002400010024079
:1017000018480008A40000209C0000200448054957
:1017100000684968044AC1F30221515CC84070471F
:10172000A400002000100240284800080448054991
:1017300000684968044AC1F3C221515CC84070473F
:10174000A4000020001002402848000812A185B023
:101750000FC98DE80F0014A0144A00680490516866
:10176000134801F00C03042B10D0082B0ED1C1F349
:101770008343C9031DF803000AD5516804AAC1F3C5
:101780004041515C0A4A5043B0FBF1F005B070474C
:1017900008494843FAE70000020304050607080960
:1017A0000A0B0C0D0E0F1010010200000010024079
:1017B00000127A0000093D002DE9F84F040070D0B6
:1017C0002078C04DC00749D06868C0F38100012867
:1017D00007D06868C0F38100022809D16868C00397
:1017E00006D52868800339D560680028E7D035E041
:1017F0006068B0F5803F0BD010B1B0F5A02F11D0CC
:10180000286820F480302860286820F4802002E0D6
:10181000286840F480302860606890B1FFF780FA53
:1018200006460AE0286840F480202860F0E700BF00
:10183000FFF776FA801B642873D828688003F7D5F1
:101840000CE0FFF76DFA064605E000BFFFF768FA07
:10185000801B6428F0D828688003F7D420789A4E3B
:1018600080074FF001094FF0000839D5686810F083
:101870000C0F07D06868C0F38100022809D168689E
:10188000C00306D42868800714D52069012808D130
:1018900010E02069B0B1C6F80090FFF741FA0746A2
:1018A00005E00AE1FFF73CFAC01B0228C4D828680B
:1018B0008007F7D52868616920F0F80040EAC10088
:1018C00028600DE0C6F80080FFF72AFA074604E01A
:1018D000FFF726FAC01B022823D828688007F7D410
:1018E000207800072CD57948A169D9B1C0F80090BB
:1018F000FFF716FA074604E0FFF712FAC01B0228AA
:101900000FD8686A8007F7D571484FF4FA5100681C
:10191000B0FBF1F0009000BF0098411E0091FAD298
:101920000EE080E0C0F80080FFF7FAF9074604E017
:10193000FFF7F6F9C01B022875D8686A8007F7D44C
:101940002078400760D5E8690027C00008D4E8691E
:1019500040F08050E861E869012700F08050009075
:101960005C480168C90513D40168834641F480715D
:101970000160FFF7D5F9824606E000BFFFF7D0F916
:10198000A0EB0A0064284ED8DBF80000C005F5D5AE
:10199000E06801280AD008B1052813D0286A20F091
:1019A00001002862286A20F0040002E0286A40F062
:1019B00001002862E06841F2883B98B1FFF7B0F976
:1019C00082460BE0286A40F004002862EEE700BF80
:1019D000FFF7A6F9A0EB0A0159455AD8286A8007F3
:1019E000F6D50CE0FFF79CF9824605E0FFF798F981
:1019F000A0EB0A0159454CD8286A8007F6D41FB1DC
:101A0000E86920F08050E861E06988B36968C1F353
:101A10008101022944D00228C6F8608004D0FFF773
:101A20007FF9044638E034E0FFF77AF9074604E02E
:101A3000FFF776F9C01B02282BD828688001F7D45D
:101A4000206AB0F5803F05D16868A16820F40030B5
:101A500008436860D4E908010843696821F47411F7
:101A600008436860C6F86090FFF75AF9044606E03C
:101A700025E000BFFFF754F9001B022809D82868A9
:101A80008001F7D51BE000BFFFF74AF9001B0228D1
:101A900002D90320BDE8F88F28688001F4D40EE055
:101AA0000128F7D06868226A00F48031914204D19D
:101AB000616A00F47010884201D00120EAE700203A
:101AC000E8E7000000100240000042428004424269
:101AD000A4000020007000407047000038B50446A4
:101AE000006842688168C9434B0606D5CB0704D11C
:101AF000D3435B0601D4216C05E08B0708D4D343A4
:101B00001B0605D4616C01B02046BDE83040084793
:101B10008B0601D54B0646D4D3439B0643D44B06D4
:101B20000AD494F85130032B3ED0636D43F0040384
:101B30006365C36883680093890609D4616D41F0C9
:101B40000101616581680091016821F04001016037
:101B5000606D002827D02068416821F0E0014160D5
:101B6000012084F85100900722D02068416821F0BC
:101B700003014160104DE06C40B14563E06CFEF73D
:101B800075FE18B1606D40F040006065A06C0028E3
:101B900009D04563A06CFEF769FE002803D0606D94
:101BA00040F04000606538BDC1688068009038BD75
:101BB0002046FFF791FF38BD2D3B000870B50400AB
:101BC00009D0606A002540B125616561A56294F87D
:101BD000510040B10CE0012070BD6068B0F5827F1B
:101BE000F4D0E561F2E784F85050204600F040F868
:101BF000022084F851002068016821F04001016052
:101C0000A088218900F4827001F404410843A1896D
:101C100001F400610843217C01F002010843217DA9
:101C200001F001010843218B01F400710843217F79
:101C300001F03801084394F8201001F080010843B6
:101C4000218D01F40051084321680860A069042136
:101C500001EA1040216848602068C16921F40061F0
:101C6000C1616565012084F85100002070BD00004D
:101C700070B586B00025064600950195029503953E
:101C80000068214988423DD12049886940F480504C
:101C90008861886900F480500490886940F00400ED
:101CA000886188691A4C00F004000490B02000900C
:101CB00069462046FEF73AFF40200090022001903E
:101CC0000320039069462046FEF730FF124C11486E
:101CD000C4E900058020C4E9025020202561C4E940
:101CE00005502046E561FEF7BBFE08B1FEF7B4FDE6
:101CF000F4640022114623206662FFF747FB23208D
:101D0000FFF736FB06B070BD003001400010024006
:101D1000000801401C000240D80400202DE9F041D9
:101D2000044600268068042318B96568B5F5827FEB
:101D30000ED094F85050012D13D0012784F8507024
:101D400094F851C00025BCF1010F0DD0022654E0DB
:101D500084F851302046BDE8F04113460A4600F0B1
:101D600099B80220BDE8F08171B16AB184F85130B0
:101D70006565A163A287E28725646564A586E5861B
:101D8000B0F5004F02D00BE0012636E02068016874
:101D900021F0400101602068016821F48041016068
:101DA000E16C1848C862E16C17488862E16C17481A
:101DB0000863E06C4563E38F2168A26B0C31E06C33
:101DC000FEF77CFE38B1606D40F0100060650126C2
:101DD00084F8517011E020680168490603D4016855
:101DE00041F0400101602068416841F020014160FC
:101DF0002068416841F00101416084F8505030464C
:101E0000B0E700005F3B0008733B00083D3B000863
:101E100010B51D4900680968884233D11B48C07855
:101E200020282FD1194C243CE06A30281ED1A06A0A
:101E30003238A062A06A40B202F0DAFCD4E91C0198
:101E40000222FEF75DFBC4E91C01A06A142803DC32
:101E5000A06A10F1140F01DA5A2100E0B421012028
:101E600001F04EFEB421012001F02CFCE06A332881
:101E700000D12070E06A322800D12070E06A312859
:101E800000D1207010BD000080040020240000203C
:101E9000704700002DE9F041044690F850000026FC
:101EA00001280DD0012784F8507094F851000025C6
:101EB000D4F804C001280FD0BCF5827F0AD102E01B
:101EC0000220BDE8F081D4F808C0BCF1000F01D1B8
:101ED000042801D0022660E049B342B33BB394F832
:101EE0005100042802D0052084F851006565216363
:101EF000A386E386A263A387E3872564656494F8D9
:101F00005100042815D0E16C2648C8622648E16CCF
:101F10008862E16C25480863E06C4563E38F2168C3
:101F2000A26B0C31E06CFEF7C9FDE0B906E00126BA
:101F300033E0E16C1E48C8621E48E8E7206841684B
:101F400041F001014160A06CC562A06C8562A06C8B
:101F50000563A06C4563E38E2268216B0C32A06C94
:101F6000FEF7ACFD38B1606D40F0100060650126F1
:101F700084F8517011E020680168490603D40168B3
:101F800041F0400101602068416841F0200141605A
:101F90002068416841F00201416084F850503046A9
:101FA0008FE70000693B0008DD3B00083D3B00086F
:101FB0005F3B0008733B00087047704710B5401E38
:101FC000B0F1807F01D3012010BD4FF0E0246061AB
:101FD0000F21601702F05AF90020A061072020614C
:101FE000002010BD7047704710B590F83C20012AC2
:101FF00022D0012280F83C20CA688C6822F440720A
:1020000022434C6822F4806222430C6822F400626E
:1020100022430C6922F4805222434C6922F400527C
:102020002243C969002322F480420A4301684A64BA
:1020300080F83C30002010BD022010BD70B590F833
:102040003C20012A26D0012480F83C40022280F85E
:102050003D2003685A689D6822F070060A68324382
:102060005A600D4B02689A4208D0B2F1804F05D0F9
:102070000A4B9A4202D00A4B9A4204D1496825F091
:1020800080031943916080F83D40002180F83C10A6
:10209000084670BD022070BD002C014000040040C5
:1020A0000008004010B5040003D094F83D0010B1C2
:1020B00007E0012010BD002084F83C00204600F01D
:1020C0001FF8022084F83D00211D206801F0AAFEBF
:1020D000012084F8460084F83E0084F83F0084F82C
:1020E000400084F8410084F8420084F8430084F8FA
:1020F000440084F8450084F83D00002010BD000035
:1021000008B5114A01681148914208D1816941F42A
:1021100000618161806900F40060009008BD0C4A94
:102120009142FBD1C16941F00401C161C069002243
:1021300000F00400009011461E20FFF727F9BDE8CB
:1021400008401E20FFF714B9002C01400010024087
:102150000008004090F83D10012901D0012070478F
:10216000022180F83D100168CA6842F00102CA608D
:1021700000680B49884208D0B0F1804F05D009496A
:10218000884202D00849884204D1816801F00701E1
:10219000062903D0016841F0010101600020704769
:1021A000002C0140000400400008004070B50446C7
:1021B00090F83C00012817D0012584F83C500220FB
:1021C00084F83D002068826822F0770222F47F4282
:1021D00082600868502830D00DDC20284DD005DC06
:1021E00098B310283BD148E0022070BD302844D07D
:1021F000402834D139E0602828D0702806D0B0F5C6
:10220000805F2CD0B0F5005F29D10AE0CB68D1E91E
:102210000121206801F049FE2068816841F07701C2
:1022200009E0CB68D1E90121206801F03EFE206879
:10223000816841F48041816011E0CA684968206882
:1022400001F0E8FE5021206807E016E0CA684968FE
:10225000206801F0F0FE6021206801F030FE84F873
:102260003D50002084F83C0070BDCA684968206871
:1022700001F0D0FE40212068EFE7226801461046B9
:10228000EBE72DE9F0410D46040003D094F83D0042
:1022900018B108E00120BDE8F081002084F83C007E
:1022A000204600F041F8022084F83D002068816853
:1022B00044F2070291438160211D206801F0B2FDC4
:1022C000226890689169166A2B68AF69034340F2EF
:1022D0000330814341EA0721A868EF6908434FF6BC
:1022E000FC418843E96840EA0720014328692F6AD6
:1022F000000140EA0730084369686D6926F022064C
:1023000046EA0515294393602268906154F8460B0C
:102310000162012004F81F09E0752076E07620773D
:10232000A0750020B7E7000070B586B000250095C5
:1023300001950295039500683349344E344CB0F151
:10234000804F2BD0334A904226D1C86940F002001A
:10235000C861C86900F002000490886940F0080074
:1023600088618869694600F0080004903020009078
:102370003046FEF7DBFB606820F4406040F0E06030
:1023800040F400606060002211461D20FEF7FEFF51
:102390005FF01D00FEF7ECFF06B070BDC86940F0AD
:1023A0000100C861C86900F001000490886940F02C
:1023B00004008861886900F004000490886940F096
:1023C000080088618869694600F0080004904FF4AD
:1023D000004000901048FEF7A9FB0820CDE9000559
:1023E000694630460295FEF7A1FB606820F4407014
:1023F00040F0E06040F480706060002211461C20D4
:10240000FEF7C4FF1C20C5E700100240000C01408D
:1024100000000140000400400008014070B590F841
:102420003E60044690F83F5090F8423090F84320C8
:10243000022021B104290ED0012E1BD114E0012E5F
:1024400018D1012B16D184F83E0084F842000122F5
:102450000021206820E0012D0CD1012A0AD184F846
:102460003F0084F8430014E0012D03D1012B01D17A
:10247000012A01D0012070BD84F83E0084F83F009D
:1024800084F8420084F8430001220021206801F012
:10249000FFFC01220421206801F0FAFC2068016899
:1024A00041F001010160002070BD704770B5044625
:1024B000006801694FF00005C943890715D4C16858
:1024C000C943890711D4E91E0161012020772068E2
:1024D00080698007204602D0FFF7E7FF04E000F0A4
:1024E000BFF8204600F04EF9257720680169C943FE
:1024F000490717D4C168C943490713D46FF00401D1
:102500000161022020772068806910F4407F204616
:1025100002D0FFF7CAFF04E000F0A2F8204600F066
:1025200031F9257720680169C943090716D4C168C4
:10253000C943090712D46FF0080101610420207714
:102540002068C0698007204602D0FFF7AEFF04E094
:1025500000F086F8204600F015F92577206801691B
:10256000C943C90617D4C168C943C90613D46FF05B
:1025700010010161082020772068C06910F4407FB5
:10258000204602D0FFF791FF04E000F069F82046F2
:1025900000F0F8F8257720680169C943C90708D118
:1025A000C168C943C90704D1891E0161204600F0F2
:1025B000A7F920680169C943090609D4C168C9435C
:1025C000090605D46FF0800101612046FFF70AFD7E
:1025D00020680169C943490609D4C168C94349064D
:1025E00005D46FF040010161204600F09DF920689C
:1025F0000169C94389060BD4C168C943890607D458
:102600006FF0200101612046BDE87040FFF7EBBC90
:1026100070BD000000B585B00021009101910291CC
:10262000039100680B49884212D10B48816941F03F
:10263000040181618069694600F0040004904FF450
:10264000A06000900220019003900448FEF76EFA0B
:1026500005B000BD002C0140001002400008014000
:10266000704770B5044690F83C000D4601280AD02A
:10267000012084F83C0042B1042A18D0082A2AD04C
:102680000C2A4DD139E0022070BD206801F020FCF9
:102690002068816941F0080181612068816921F029
:1026A00004018161206881692A69114311E0206871
:1026B00001F036FC2068816941F400618161206885
:1026C000816921F480618161206881692A6941EA18
:1026D0000221816124E0206801F04EFC2068C1697C
:1026E00041F00801C1612068C16921F00401C161A4
:1026F0002068C1692A69114311E0206801F068FC73
:102700002068C16941F40061C1612068C16921F498
:102710008061C1612068C1692A6941EA0221C16101
:10272000002084F83C0070BD10B5040003D094F87C
:102730003D0010B107E0012010BD002084F83C00EE
:10274000204600F01EF8022084F83D00211D20687C
:1027500001F068FB012084F8460084F83E0084F80C
:102760003F0084F8400084F8410084F8420084F877
:10277000430084F8440084F8450084F83D000020BC
:1027800010BD704700680449884204D1002202212C
:102790000248FEF7C0BA7047000800400008014038
:1027A00010B50446022249B104290ED0082913D0DD
:1027B00094F84100012816D0012010BD94F83E0085
:1027C0000128F9D184F83E200FE094F83F00012859
:1027D000F2D184F83F2008E094F840000128EBD1C2
:1027E00084F8402001E084F841200122206801F0B3
:1027F0004FFB0F492068884203D1426C42F40042EB
:1028000042642068884208D0B0F1804F05D0094961
:10281000884202D00849884204D1816801F007014A
:10282000062903D0016841F001010160002010BDBC
:10283000002C0140000400400008004010B5044690
:10284000022249B1042912D008291CD094F8410071
:10285000012823D0012010BD94F83E000128F9D1B1
:1028600084F83E202068C26842F0020209E094F831
:102870003F000128EED184F83F202068C26842F072
:102880000402C2600EE094F840000128E2D184F80E
:1028900040202068C26842F00802F2E784F8412034
:1028A0000C2922D00122206801F0F2FA1149206897
:1028B000884203D1426C42F400424264206888425C
:1028C00008D0B0F1804F05D00B49884202D00B49A7
:1028D000884204D1816801F00701062903D001680C
:1028E00041F001010160002010BD2068C26842F083
:1028F0001002C6E7002C0140000400400008004020
:10290000074900680968884209D10648816B491C5B
:102910008163052903DB0121416000218163704748
:10292000F4050020000000207047704770B5026871
:1029300004461068D168536910F00F0F52D003F0AD
:10294000010501F490762E435FD0C20705D0CA0579
:1029500003D5E26B42F00102E263420705D5DA07D4
:1029600003D0E26B42F00202E263820705D5DA0788
:1029700003D0E26B42F00402E263020707D501F0E4
:1029800020022A4303D0E26B42F00802E263E26BCA
:10299000002A33D0800604D5880602D5204601F0EF
:1029A00072FB20684069E16BC0F38010090700D416
:1029B00028B3204601F059FB2068416949061AD521
:1029C000416921F040014161606BA0B12D49416333
:1029D000606BFDF74BFF002810D0606B416BBDE8CA
:1029E00070400847830610D58B060ED52046BDE8FB
:1029F000704001F048BB2046FFF797FF70BD2046AE
:102A0000FFF793FF0020E06370BD03062BD50B0694
:102A100029D594F839002128F6D1A068B0F5805F57
:102A200001D12069B0B1206A411C2162216800787F
:102A30004860E08C401E0004000CE084E4D1206873
:102A4000C16821F08001C1602068C16841F0400187
:102A5000C16070BD206A0088C0F308005060206A21
:102A6000801C2062E5E74006F3D54806F1D5D16821
:102A7000204621F04001D160202184F8391000F077
:102A800063F970BD5B40000870B5040004D094F891
:102A90003900002510B106E0012070BD84F83850DF
:102AA000204600F023F8242084F839002068C1680B
:102AB00021F40051C160204601F02CFB206801691F
:102AC00021F4904101612068416921F02A014161AE
:102AD0002068C16841F40051C160E563202084F89A
:102AE000390084F83A00002070BD000030B585B090
:102AF00000240094019402940394006818498842C9
:102B00002BD11848C16941F40031C161C16901F498
:102B100000310491816941F0040181618069124DA5
:102B200000F0040004900420009002200190032093
:102B3000039069462846FDF7F9FF0820CDE9000417
:102B4000694628460294FDF7F1FF0122114626202E
:102B5000FEF71CFC2620FEF70BFC05B030BD000084
:102B600000440040001002400008014090F83A3054
:102B7000202B22D1F9B1F2B190F83830012B1CD0C2
:102B800081628285C2850021C163222280F83A20B9
:102B900080F838100168CA6842F48072CA6001681F
:102BA0004A6942F001024A610068C16841F02001AF
:102BB000C16000207047012070470220704700006C
:102BC00010B523490068096888423FD12148C07880
:102BD00020283BD11F4C243CE06A30281ED1A06A3B
:102BE0003238A062A06A40B201F002FED4E91C01B2
:102BF0000222FDF785FCC4E91C01A06A142803DC4D
:102C0000A06A10F1140F01DA5A2100E0B42101206A
:102C100000F076FFB421012000F054FDE06A332873
:102C200000D12070E06A322800D12070E06A31289B
:102C300000D1207004220749054800F066F8BDE87D
:102C40001040042203490248FFF790BF10BD000066
:102C500040040020240000202DE9F843044690F8A9
:102C600039001F4616460D4620284CD1C5B1BEB1CD
:102C700094F83800012846D0012084F838004FF03D
:102C80000008C4F83C80212084F83900FEF748F899
:102C9000A6848146E684A068B0F5805F03D004E096
:102CA0000120BDE8F883206928B12E465FF00005B9
:102CB00084F838800EE00026FAE78021204601F0F3
:102CC00085FAA0B9AEB116F8010B21684860E08C16
:102CD000401EE084E08C4B464FF000020097002835
:102CE000EBD14FF04001204601F070FA30B10320E3
:102CF000D7E735F8020BC0F30800E6E7202084F898
:102D000039000020CDE70220CBE790F83930202BA6
:102D100018D1A9B1A2B190F83830012B12D00162BC
:102D20008284C2840021C163212280F8392080F886
:102D300038100068C16841F08001C1600020704710
:102D400001207047022070477047FEE70148FDF7F9
:102D5000EFBF0000EC0300200148FEF74BB8000075
:102D6000EC03002038B5406A002190F83D202B4B41
:102D700046F2A8141B68B3FBF4F3C3EBC30303EBE5
:102D8000830300933BB15B1E009303681B689B05A4
:102D900005D5009BF6E7036C43F020030364436B07
:102DA00003B19962836B03B1996203681C6824F4D0
:102DB00080641C604185436B03B15963836B03B12D
:102DC000596303681C6824F001041C6090F83D40BE
:102DD0002023602C0BD0282434EA02020FD080F884
:102DE0003D3080F83E1000BFFEF737F938BD80F85F
:102DF0003D3080F83E100164FDF798FF38BD026851
:102E0000136843F0010313600268136843F480639E
:102E10001360016380F83D40E6E70000A400002055
:102E200070B5044690F83D0094F83E10102901D08A
:102E3000402906D1222804D121680A6822F40062C0
:102E40000A60282131EA00024FF000054FF0200609
:102E500026D021684968090505D4602803D084F884
:102E60003D6084F83E50256320684168090537D5E8
:102E7000416821F400614160606B3D4990F8212078
:102E8000012A11D04163606BFDF7F0FC38B3206874
:102E9000016821F00101016084F83D60606B1CE075
:102EA000256384F83D10DFE7A06B4163A06BFDF75D
:102EB000DDFCA0B120684169C943490605D4006919
:102EC000616A0870606A401C60622068016821F0D5
:102ED0000101016084F83D60A06B416B884710E000
:102EE00094F83D10602910D04169C943490605D4C2
:102EF0000069616A0870606A401C60622046FEF7E3
:102F0000ACF8206CC1071CD115E084F83D60256445
:102F10004169C943490605D40069616A0870606A5D
:102F2000401C60622068016821F0010101602046B8
:102F3000FDF7FCFEE5E7810703D4410701D4000754
:102F400004D52068416821F4E061416094F83D00B7
:102F5000216C49070BD5282809D10648E062256372
:102F600084F83D6084F83E502046FEF73BF970BD82
:102F7000652D00080000FFFF10B5C26A438D01688F
:102F8000042B06D0438D032B08D0438D022B1DD07C
:102F900012E04A6822F480624A600CE04B6823F435
:102FA00080634B60042A06D0022A04D001680A68B4
:102FB00022F480620A6001680969426A1170416AFC
:102FC000491C4162418D491E418510BD012A30D006
:102FD000102A2ED0042A30D0022A2ED00A6842F4B9
:102FE00000720A6001680969426A1170416A491CED
:102FF0004162428D521E4285026812690A70416A1E
:10300000491C4162418D491E418501684A6822F48C
:1030100040724A60202180F83D1090F83E20002147
:10302000402A80F83E100CD012210163FEF7DBF835
:1030300010BD0A6822F48062D3E70A6842F4806215
:10304000CFE70163FEF7D1F810BD000038B590F866
:103050003D10222914D1418D032912D90168096933
:10306000426A1170416A491C4162418D491E418585
:10307000418D032904D10068416821F480614160D9
:1030800038BDC26A022AFBD0012901D00029F7D13C
:10309000274946F2A81300220968B1FBF3F101EBBE
:1030A0008101009101682023009C641E009422D0BD
:1030B0000C68A405F8D40C6824F480640C600168E2
:1030C0004C6824F4E0644C6001680969446A21702A
:1030D000416A491C4162418D491E418580F83D305D
:1030E00090F83E1080F83E2040291DD01221016347
:1030F000FEF779F838BD046C44F0200404644C6891
:1031000024F4E0644C6001680969446A2170416AF2
:10311000491C4162418D491E418580F83D3080F84F
:103120003E20FDF79AFF38BD0263FEF75EF838BD1A
:10313000A400002010B5C16A90F83D20212A0BD1CF
:10314000428D52B1416A026809781161416A491C95
:103150004162418D491E418510BD0022202308296E
:1031600010D020290ED011F5803F0BD001684C689B
:1031700024F4E0644C601121016380F83E2080F863
:103180003D300EE001684C6824F4E0644C60016856
:103190000C6844F400740C60026380F83D3080F8E1
:1031A0003E20FEF721F810BD10B590F83D1090F8C4
:1031B0003E30C26A048DB4B1212903D0402B11D115
:1031C00022290FD1418DE1B390F83E10402942D021
:1031D000416A026809781161416A491C4162418D66
:1031E000491E418510BD2129E8D120230021082A4C
:1031F00013D0202A11D012F5803F0ED002685468F7
:1032000024F4E06454601122026380F83E1080F8D8
:103210003D3000BFFDF7E8FF10BD0268546824F49C
:10322000E06454600268146844F40074146001633C
:1032300080F83D3090F83E2080F83E10402AE9D1D9
:1032400000E002E0FDF7D2FF10BD0068416821F404
:103250008061416010BDBDE8104000F0F3B800008F
:1032600078B590F83E50C26A046B90F83D60002338
:103270000168222E73D1066D0EB9402D6FD0056DF9
:103280001DB90569B5F5404F1BD0458D95B3468DE9
:10329000484D012E20D0448D022C4DD00C6844F4B2
:1032A00080640C6001684C68240579D5AA4273D00B
:1032B000012A71D0082A6FD0102A6DD0202A6BD035
:1032C0006EE04A698A6900920A6842F480720A6074
:1032D000016D491C016578BDAA4214D10A6822F427
:1032E00080620A6001684A68120504D50A6822F4FF
:1032F000806217E0FFE74A698A6900920A6842F42F
:1033000000720A6050E0082A10D0202A0ED0122C39
:103310000AD0042A03D0022A01D0102AE6D10A6872
:1033200042F480620A603BE0012ADFD00A6822F49E
:1033300080620A600168DEE7042A11D0022A0FD0F9
:10334000102A0DD00C6844F400640C6001684C69CC
:103350008C6900940C6824F480640C6008E025E01B
:103360000C6844F480640C6001684C6989690091C0
:1033700001684C68240517D5AA4207D0012A05D058
:10338000082A03D0102A01D0202A0DD14A6842F41D
:1033900080524A6008E0FFE74A6842F480524A607F
:1033A00001684A6989690091036578BD486988693F
:1033B000009078BD0000FFFF90F83E10402910D02B
:1033C0000169B1F5804F19D0016DA9B3016D0129D3
:1033D00010D1416C5FF0F10201F4407142EAD11169
:1033E00006E0016D0029416C05D0C9B241F0010130
:1033F00000680161704701F0FE01F9E790F83D10A7
:103400002129416C09D0C9B241F001010268116162
:10341000416B29B1896A49B902E001F0FE01F5E783
:10342000816B0029E6D0896A0029E3D000684168F1
:1034300041F4006141607047FFE7416CF02201F404
:103440004071CBE710B590F83D10026D22B3026DCC
:10345000012A2FD0026D022A1DD1222931D0428D9E
:103460000AB1212933D0428D002A14D1212912D149
:1034700001684A6822F4E0624A6001680A6842F41E
:1034800000720A6000210163202280F83D2080F84C
:103490003E10FDF7ABFE10BDC16C0129816C02D05E
:1034A000C1F3072108E00268C9B21161016D891CEE
:1034B000016510BD816CC9B202681161016D491CC2
:1034C000F6E70068016841F48071016010BD416A4F
:1034D000026809781161416A491C4162418D491EA7
:1034E000418510BD2DE9F04190F83D40C26A0023AE
:1034F00020261C4F01686FF48065082A01D0202A1D
:1035000001D1282C04D0212C16D04D61BDE8F081CA
:10351000C7624A6822F4E0624A6001684D6101684E
:103520000A6822F480620A60036380F83D6080F8D4
:103530003E30FDF757FEE9E7C7622122026380F8BB
:103540003D6080F83E304A6822F4E0624A600168DB
:103550004D6101680A6822F480620A60FDF7AFFEDF
:10356000D4E700000000FFFFF8B590F83D60044686
:103570000068416821F4E0614160206800254169EC
:103580000091016841F0010101602068016821F4A7
:103590008061016020684168090520D5474F222ECF
:1035A00048D02A2E46D0616B096849686185618DD3
:1035B00019B1216C41F004012164416821F40061DA
:1035C0004160606BFDF79EF9012808D0606B47638E
:1035D000606BFDF74BF910B1606B416B8847608DF4
:1035E00008B320684169C943490708D40069616A82
:1035F0000870606A401C6062608D401E60852068B3
:103600004169C943490608D40069616A0870606A63
:10361000401C6062608D401E6085608D18B1206C1A
:1036200040F004002064206C00B32046BDE8F84060
:10363000FFF7F6BBA16B096849686185618D19B117
:10364000216C41F004012164416821F40061416072
:10365000A06BFDF757F90128C1D0A06B4763A06BA1
:10366000FDF704F90028BAD0A06BB6E72A2E06D1E0
:103670002563282084F83D002046FDF71FFE94F8BE
:103680003D10202028290DD0216B222901D0222E87
:1036900007D1256384F83D0084F83E502046FDF7AD
:1036A0000DFEF8BD0649E162256384F83D0084F80B
:1036B0003E502046FDF796FDF8BD0000652D000840
:1036C0000000FFFF10B50C46C2B202210348FDF70F
:1036D00022FB03480068446310BD0000000C014059
:1036E0001C050020094808B5416941F0010141610C
:1036F0004069002200F00100009011460C20FDF707
:1037000045FEBDE808400C20FDF732BE0010024027
:103710002DE9F04385B000242948009401940294D7
:103720000394816941F020018161816901F02001E8
:103730000491816941F004018161816901F0040112
:103740000491816941F0080181618069DFF874901A
:1037500000F008000490002240F202214846FDF7E4
:10376000DAFADFF86480002203214046FDF7D3FA3D
:1037700002250327012603970095CDE901646946D8
:103780004846FDF7D3F9CDE9007669464046CDE9D4
:103790000245FDF7CBF93803CDE900046946404600
:1037A000CDE90245FDF7C2F92802CDE900066946D8
:1037B0004846CDE90245FDF7B9F905B0BDE8F0830B
:1037C0000010024000080140000C01400D4810B5F7
:1037D0000B4901600C49416000214FF48042816037
:1037E000C0E9031241618161C1610162FDF736FCEC
:1037F000002803D0BDE81040FDF72EB810BD000032
:103800000054004098030020801A06000E4810B5AE
:103810000C490160002141608160C16001610822A2
:103820004161C0E906120162416281620A21C162FE
:10383000FEF7C4F9002803D0BDE81040FDF70CB82E
:1038400010BD0000003001408004002010B596B08B
:1038500000240F9410941194129413941C21684620
:103860001494FCF788FC202107A8FCF784FC30485E
:103870002E4901601221C0E901144FF4C871C0E95A
:10388000031444618461FEF70DFC08B1FCF7E4FF0A
:103890004FF480500F900FA92548FEF787FC08B120
:1038A000FCF7DAFF2248FEF73FFF08B1FCF7D4FF30
:1038B000139413A91E481494FEF7C0FB08B1FCF73B
:1038C000CBFF6020CDE90004029403940494059496
:1038D0000022694616480694FEF7C3FE08B1FCF7BD
:1038E000BBFF082269461248FEF7BBFE08B1FCF791
:1038F000B3FF0794089409944FF400500A94CDE95B
:103900000B4007A90A480E94FEF76EFB08B1FCF7BE
:10391000A3FF0748FEF77EFE00210548FEF740FFA3
:1039200008210348FEF73CFF16B010BD002C0140F3
:103930001C05002010B58CB024216846FCF71BFC48
:103940000024184809944FF080410A94C0E90014FB
:103950004FF6FF71C0E90241046184610120CDE9A5
:103960000004CDE902040494CDE9054007946946BA
:103970000C480894FEF785FC08B1FCF76DFF09942C
:1039800009A908480A94FEF759FB08B1FCF764FF3F
:103990003C210448FEF742FD0248FEF7DBFB0CB079
:1039A00010BD00006405002010B58CB024216846CD
:1039B000FCF7E1FB00241848099416490A94C0E971
:1039C00000144FF6FF71C0E90241046184610120D7
:1039D000CDE90004CDE902040494CDE90540079443
:1039E00069460D480894FEF74CFC08B1FCF734FF1B
:1039F000099409A908480A94FEF720FB08B1FCF7CE
:103A00002BFF3C210448FEF709FD0348FEF7A2FB0B
:103A10000CB010BD00040040AC05002010B58EB005
:103A200000240794089409940A940B941C21684676
:103A30000C94FCF7A0FB21481F4901604F21C0E90D
:103A4000011444F24F61C0E903148461FEF72AFBBC
:103A500008B1FCF701FF4FF48050079007A9174801
:103A6000FEF7A4FB08B1FCF7F7FE1448FEF75CFE76
:103A700008B1FCF7F1FE0B940BA910480C94FEF76B
:103A8000DDFA08B1FCF7E8FE602000904FF46170A9
:103A9000CDE901040022694608480494FEF7E1FDDF
:103AA00008B1FCF7D9FE00210448FEF7C7FE034821
:103AB000FEF750FB0EB010BD00080040F4050020DA
:103AC0000C4810B50A4901604FF4E1314160002112
:103AD00081600C22C160C0E904128161C161FEF7FE
:103AE000D3FF002803D0BDE81040FCF7B5BE10BDE1
:103AF0000044004040040020FEE77047704700008B
:103B000010B50C46C2B201210348FDF704F9034881
:103B10000068C46310BD0000000C01401C050020BB
:103B20000148FDF7DBBF00008004002010B5406AAB
:103B30000021C187C186FDF7CFFF10BD10B5406AD7
:103B400001684A6822F003024A60416D41F01001A9
:103B50004165012180F85110FDF7BEFF10BD10B581
:103B6000406AFEF795F910BD10B5406AFEF725FAD8
:103B700010BD70B50546446AFDF7D2F802462868C4
:103B80000068800626D42068416821F02001416049
:103B9000A06818B96068B0F5827F16D020684168C7
:103BA00021F0010141606421204600F044F808B191
:103BB000202060650020E087012084F85100606DBE
:103BC00040B12046FDF788FF70BD2068416821F0B4
:103BD0000301E7E72046FEF71BF970BD70B5054607
:103BE000446AFDF79DF802462868006880061ED4E6
:103BF0002068416821F0200141606421204600F0E6
:103C000048F818B1606D40F0200060652068416898
:103C100021F0030141600020E086E087012084F864
:103C20005100606D18B12046FDF756FF70BD20466B
:103C3000FEF7C2F970BDF8B5044640684FF48273D0
:103C4000984217D1A0684FF48065B0F5004F01D0BD
:103C5000A8420FD12068066826F04006066060681A
:103C6000984207D1A068A84204D100920B460022D6
:103C7000012103E000920B4600228021204600F043
:103C800019F8002804D0606D40F020006065032022
:103C9000F8BD38B50B46009204460022802100F0A2
:103CA00009F8002804D0606D40F020006065032012
:103CB00038BD00002DE9F8431E469146884604466B
:103CC000089DFDF72DF8401B351AFDF729F807462A
:103CD00025480068C0F3CB30684338E0701C37D00B
:103CE000FDF71EF8C01BA84203D215B1009860B3BF
:103CF0002CE02068416821F0E00141606068B0F587
:103D0000827F0BD1A068B0F5004F02D0B0F5806F74
:103D100004D12068016821F040010160A06AB0F57B
:103D2000005F09D12068016821F40051016020681A
:103D3000016841F400510160012084F85100002025
:103D400084F850000320BDE8F8830025401E009051
:103D50002068816838EA010004D000214945BDD1BE
:103D60000020F0E70121F9E7A400002070470000DF
:103D70004FF0804147F6FF70486201490860704784
:103D800024040040FDF79CBA30B593B02821684662
:103D9000FCF7F1F914210AA8FCF7EDF90024012041
:103DA0000F9410941194010412948DE81300049060
:103DB0004FF4E010CDE90810022507956846FDF79D
:103DC000FBFC08B1FCF748FD0F20CDE90A054FF4D4
:103DD0008060CDE90C4002210AA80E94FDF700FC9A
:103DE00008B1FCF739FD10200F9012940FA8FDF7D1
:103DF00081FB002801D0FCF72FFD13B030BD7047C8
:103E00000148FEF753BB0000640500200148FEF79F
:103E10004DBB0000AC0500200148FEF747BB000089
:103E2000F4050020F0B50268164B174C174D4FF003
:103E30008047984205D0B84203D0A04201D0A842A2
:103E400003D122F070064A683243984205D0B84246
:103E500003D0A04201D0A84203D122F44074CA6822
:103E600022434C6922F08002224302608A68C262C7
:103E70000A688262984201D10969016301214161A6
:103E8000F0BD0000002C014000040040000800408C
:103E900010B501F01F030121046A99408C430462AC
:103EA000016A9A401143016210BD10B5846842EA6C
:103EB000032224F47F440A432243826010BD8268B7
:103EC00022F070020A4342F007018160704700004F
:103ED00030B5026A22F001020262026A4368846914
:103EE00024F073050C682C4322F002058A682A43EB
:103EF0000A4DA8420BD122F00805CA6823F440738A
:103F00002A434D6922F004021D438B692B43436011
:103F1000846149684163026230BD0000002C0140A9
:103F200030B5026A22F010020262026A43688469B4
:103F30000D6824F4E64444EA05248D6822F020024A
:103F400042EA05120B4DA8420ED1CD6822F0800244
:103F500042EA05124D6923F4406343EA85038D6903
:103F600022F0400243EA850343608461496881632B
:103F7000026230BD002C014030B5026A22F480722A
:103F80000262036A4268C46923F4007324F0730573
:103F90000C682C438D6843EA05230C4DA8420ED1D2
:103FA000CD6823F4006343EA05234D6922F44052AF
:103FB00042EA05128D6923F4806342EA05124260E9
:103FC000C4614968C163036230BD0000002C014038
:103FD00030B5026A22F480520262046A4268C36900
:103FE0000D6823F4E64343EA05238D6824F4005466
:103FF00044EA0534064DA84204D14D6922F48042BA
:1040000042EA85124260C36149680164046230BDBE
:10401000002C014010B5036A046A24F00104046214
:10402000846924F0F00444EA021423F00A020A43EB
:104030008461026210BD10B5036A23F010030362AD
:104040008369046A23F4704343EA023224F0A00334
:1040500043EA01118261016210BD10B5406A00217E
:10406000C185C184FEF761FC10BD0168CA6822F4F5
:104070009072CA6001684A6922F001024A612021F7
:1040800080F83A10704710B590F83A10222901D004
:10409000022010BD82684FF480539A4201D1016919
:1040A00021B1816A9A421BD04AB10AE00268816A52
:1040B0005268C2F308020A80816A891C08E002691A
:1040C00072B10268526802F07F020A70816A491C6C
:1040D0008162C18D491E0904090CC18503D016E017
:1040E00002685268F1E70168CA6822F02002CA60DB
:1040F0000168CA6822F48072CA6001684A6922F0C5
:1041000001024A61202180F83A10FEF759FD002093
:1041100010BD000070B5044600680169E26821F432
:104120004051114301612169A06808436169084356
:104130002168CA6841F20C639A430243CA6020684E
:104140004169A26921F44071114341611E4920680F
:10415000884202D1FDF7EAFA01E0FDF7D7FA00EB59
:10416000C00101EB0012606864218000B2FBF0F333
:10417000B3FBF1F36FF018067343B2FBF0F5B2FB3B
:10418000F0F605EB8305322303EB0515B5FBF1F5DE
:10419000B6FBF1F605F0F00505EB0615B2FBF0F6FF
:1041A000B2FBF0F0B0FBF1F06FF01802504306EBF9
:1041B000800003EB0010B0FBF1F0216800F00F006D
:1041C0002844886070BD0000003801402DE9F041AE
:1041D000984617460E460446069D1DE0681C1BD0F7
:1041E0002DB1FCF79DFDA0EB0800A84214D9206872
:1041F000C16821F4D071C1602068416921F00101DA
:104200004161202084F8390084F83A00002084F8C5
:1042100038000320BDE8F0812068006836EA00001D
:1042200004D00020B842D9D00020F3E70120F9E7FC
:104230000148FEF77BBB00004004002000207047CF
:1042400000207047012120F8401F0021018081805B
:1042500001820846704730F8401F21F43F41018039
:104260000020704700207047FEE700000FB4054BA8
:1042700010B503A9044A029800F028F810BC5DF8B4
:1042800014FB000021440008A80000200907090EC3
:10429000002804DB00F1E02080F80014704700F0F3
:1042A0000F0000F1E02080F8141D704702E008C8FC
:1042B000121F08C1002AFAD170477047002001E0A0
:1042C00001C1121F002AFBD1704700002DE9FF4FEA
:1042D00089B09B460446002506E025280BD05A46A7
:1042E0000B999047641C6D1C20780028F5D10DB007
:1042F0002846BDE8F08F0027B8460122474900E074
:10430000074314F8013F203B02FA03F00842F7D1BB
:1043100020782E2819D114F8010F47F004072A2815
:104320000ED06FF02F022078A0F1300109290CD8AF
:1043300008EB880102EB410100EB0108641CF2E785
:104340000A98641C50F8048B0A9020780028CED07C
:10435000642808D0692806D075281ED05A460B99C3
:1043600090476D1C58E00A994FF00A0901C90A915B
:10437000002802DA40422D2102E0390504D52B2124
:104380008DF82010012103E0F90704D02021F7E780
:104390008A4608AE0DE00021FAE70A994FF00A09B3
:1043A00001C90A91F7E74946FCF750F9303106F8A0
:1043B000011D0028F7D1ADEB060000F120097807B8
:1043C00001D44FF00108C84502DDA8EB090000E068
:1043D00000208046002706E008A85A46C05D0B99D9
:1043E00090476D1C7F1C5745F6DB04E030205A4691
:1043F0000B9990476D1CB8F10001A8F10108F5DC9C
:1044000005E016F8010B5A460B9990476D1CB9F15F
:104410000001A9F10109F4DC641C65E70928010029
:1044200013B50A23012269460248FEF715FC0098DD
:104430001CBD0000400400200EB5FCF749FFFFF74B
:10444000A3FCFFF765F9FFF701FAFFF773FAFFF72F
:10445000ABFAFFF7E3FAFFF733FB62486049002647
:104460000160082141608661C661022106628160A7
:10447000FCF7BEFF08B1FCF7EFF9FFF7C7F9FFF74C
:1044800031F9FFF7A3F9042257495848FEF76EFBAC
:10449000042255495648FDF741FC002000F0A8F9D8
:1044A000FCF7D4F90446FCF7CDF90146224651A0A9
:1044B000FFF7DCFE4C4CDFF850A1544D243C4FF488
:1044C00000494FF48048207831280ED032280CD093
:1044D00033280AD1002000F08BF900210846FFF7AD
:1044E000F1F800210846FFF70BFB6068012845D171
:1044F00004F10800666007C88DE80700D4E91C01D4
:10450000D4E9142300F08EF8C4E9140104F1140076
:1045100007C88DE80700D4E91C01D4E91A2300F08C
:10452000F9F8002257465346C4E91A01FCF75AF835
:1045300002D80020344908E0D4E91A0100221346C9
:10454000FCF738F803D800200146C4E91A01D4E981
:10455000140100223B46FCF745F802D800202A4906
:1045600008E0D4E9140100221346FCF723F803D82D
:1045700000200146C4E91401FFF7FAFBD4E9140155
:10458000FBF7E6FF01460120FFF79CF8D4E91A018A
:10459000FBF7DEFF01460120FFF7B2FA4F4649461E
:1045A0002846FCF7B3FB78B939462846FCF7AEFB42
:1045B0000028F9D0FCF74AF90746FCF743F9014611
:1045C0003A4613A0FFF752FE4746414600E03946FF
:1045D0002846FCF79BFB00287FF475AFF7E7000047
:1045E000005C0040AC0000202400002040040020BB
:1045F000800400205374617274202E2E2E202564B6
:104600000925640A0D00000000007940000C0140FB
:104610004C656674202E2E2E2025640925640A0D13
:10462000000000002DE9FF5F84B080468946DDF878
:1046300050B0FCF707F9A0F5FE46FF3E324D06EB01
:10464000860040002E63FBF772FF07460C460022EF
:104650002E4B40464946FBF772FE3A462346FBF78F
:1046600068FE00222A4BFBF7DCFEFBF7D3FF286233
:104670000190FBF78CFF0091D5E91E230446FBF760
:10468000B7FDC5E91E01D5E9102381468A462046BB
:104690000099FBF74EFE05F180028046C2E9000159
:1046A0000F465846FBF773FF42463B46FBF747FE73
:1046B000834602911398FBF76AFF4A465346FBF77D
:1046C0003EFE0746884601991298FBF75FFDFBF70F
:1046D0005EFFDDE90623FBF78BFD3A464346FBF719
:1046E00087FD5A46029BFBF783FD884600990746E3
:1046F000C5E910413046FBF71AFFC5E9120108B0C1
:1047000038464146BDE8F09F0000002000407F4051
:10471000000059402DE9FF5F82B005468946FCF74D
:1047200095F8304EA0F5FE40FF387063FBF7FFFEB2
:1047300080460C460091474600222B4B28464946AE
:10474000FBF7FDFD3A462346FBF7F3FD0022274B1E
:10475000FBF767FE06F180070D46044602460B464E
:10476000D7E90201FBF744FDC7E90201D6E91623A8
:1047700082468B4620462946FBF7DBFDC7E904014C
:10478000074689461298FBF702FF3A464B46FBF76D
:10479000D6FD074689461198FBF7F9FE52465B465F
:1047A000FBF7CDFD82468B461098FBF7F0FE2246C4
:1047B0002B46FBF7C4FDDDE90423FBF719FD524648
:1047C0005B46FBF715FD3A464B46FBF711FD0B46E2
:1047D000C6E916450099C6E9188106B01946BDE834
:1047E000F09F00000000002000004940000024402D
:1047F0006FF03601884201DA084602E0372800DD12
:10480000372000EB800040F2465101EB40000149A7
:1048100008607047340800400000000000000000FD
:104820000102030406070809000000000102030456
:104830005048000800000020AC000000AC42000816
:10484000FC480008AC00002094090000BC420008AD
:10485000300000000000000000008040B5FE163768
:104860000000C03F00008040B5FE16370000C03F8A
:104870000000000000000000000000000000000038
:104880000000000000000000000000000000000028
:104890000000000000000000000000000000000018
:1048A0000000000000000000000000000000000008
:1048B00000000000000000000000000000000000F8
:1048C00000000000000000000000000000000000E8
:1048D00000000000000000000000000000000000D8
:1048E00000000000000000000100000010000000B7
:0C48F000000000000024F40000000000A4
:04000005080000ED02
:00000001FF
