:020000040800F2
:100000002004002001010008270C0008410B000813
:10001000250C00088D020008810C0008000000007B
:100020000000000000000000000000002B0C000891
:100030008F02000800000000290C00082D0C0008A9
:100040001B0100081B0100081B0100081B01000820
:100050001B0100081B0100081B0100081B01000810
:100060001B010008910200081B0100081B01000889
:100070001B0100081B0100081B0100081B010008F0
:100080001B0100081B0100081B0100081B010008E0
:100090001B0100081B0100081B0100089702000853
:1000A0001B0100081B0100081B0100081B010008C0
:1000B0001B0100081B0100081B0100081B010008B0
:1000C0001B0100081B0100081B0100081B010008A0
:1000D0001B0100081B0100081B0100081B01000890
:1000E0001B0100081B0100081B010008DFF80CD0F1
:1000F00000F0BAF800480047C10C000820040020B6
:100100000648804706480047FEE7FEE7FEE7FEE7B1
:10011000FEE7FEE7FEE7FEE7FEE7FEE77F0C0008EE
:10012000ED000008D2B201E000F8012B491EFBD21D
:1001300070470022F6E710B513460A4604461946F2
:10014000FFF7F0FF204610BDF0B480EA0102D40FA3
:100150004200B2EB410F02D20246084611464A0065
:1001600042D0C30DDDB2C1F3C752AD1A202D35DA2E
:10017000C1F3160141F4000204B15242C5F1200658
:1001800002FA06F12A411044B3EBD05F23D0C4B188
:10019000012DA0EBC35009DCF0BC4FF0004202EA95
:1001A000C352DBB200F5000000F02FB8400000F1B0
:1001B000807000EBC350A0F1807040EAD17049001C
:1001C00009E0490841EAC071A0EBC35000F5000006
:1001D000400800EBC350F0BC00F00EB861420122B1
:1001E00002EB4101001BF6E7F0BC704781F00041D3
:1001F000AAE780F00040A7E70029A8BF7047401C8D
:10020000490008BF20F00100704710B4B0FA80FC2C
:1002100000FA0CF050EA010404BF10BC704749B169
:10022000CCF1200421FA04F411FA0CF118BF0121D9
:1002300021430843A3EB0C01CB1D4FEA00614FEAB9
:10024000102042BF002010BC704700EBC350104488
:100250000029A4BF10BC7047401C490008BF20F013
:10026000010010BC70470000064C074D06E0E06836
:1002700040F0010394E8070098471034AC42F6D3ED
:10028000FFF738FFE00C0008000D0008FEE770479C
:10029000082000F041B8202000F03EB82DE9F041E0
:1002A0001A4C4FF07E55082802D0202806D00AE0CC
:1002B00029462068FFF748FF206004E0294660686F
:1002C000FFF742FF6060DFF848800821404600F0F9
:1002D0001FF907464FF400410E4800F019F94FF09E
:1002E0008046874201D1A56000E0A66020214046FB
:1002F00000F00EF907461021404600F009F9874248
:1003000002D1E560BDE8F081E660FBE70000002077
:10031000000C014000080140044910B50A6802427F
:1003200002D00860FFF7BAFF10BD000014040140BE
:100330002DE9F84FDFF8B891002409F1040A0AF119
:10034000040B23460F270BF1040EC9E00125A5403D
:100350002A40AA427DD1674ED1F804C0ACEB060812
:10036000B44532D014DCBCF1030F3AD009DCBCF147
:10037000000F2AD0BCF1010F1CD0BCF1020F31D10B
:100380001DE0BCF1110F17D0BCF1120F2AD119E0FA
:10039000B8F5881F19D006DCB8F5803F15D0B8F540
:1003A000801F1FD111E0B8F5001F0ED0B8F5041F53
:1003B00018D10AE0CB6815E0CB681B1D12E0CB68B2
:1003C00008330FE0CB680C330CE08B682BB1012BAA
:1003D0004FF0080303D0456104E0042302E0056107
:1003E00000E00023FF2A01D8064601E000F10406E0
:1003F0004FEA840501D9A5F12005D6F8008007FA57
:1004000005FC28EA0C0803FA05F548EA0508C6F8D1
:1004100000804D68ED0062D5374DAE6946F00106AB
:10042000AE61AD6924F0030605F001050095334D7A
:1004300006EB050CDCF80850A607360F07FA06F89D
:1004400025EA0805DFF8B880404503D14FF00008E1
:1004500017E044E0DFF8AC80404502D14FF00108DE
:100460000FE0DFF8A480404502D14FF0020808E019
:10047000DFF89880404502D14FF0030801E04FF0CB
:10048000040808FA06F848EA0508CCF808804D6820
:10049000D9F80060ED034D4601D5164300E09643C0
:1004A0002E604D68DAF80060AD03554601D516435D
:1004B00000E096432E604D68DBF80060ED025D467B
:1004C00001D5164300E096432E604D68DEF80060CB
:1004D000AD02754601D5164300E096432E60641CBC
:1004E0000D682A46E5407FF431AFBDE8F88F000083
:1004F0000004014000001110001002400000014003
:1005000000080140000C01400010014000140140AF
:100510008068084000D0012070470AB1016170472F
:100520000904FBE7014880687047000010000020C4
:1005300002488168027811448160704710000020F1
:10054000074810B5016841F010010160032000F078
:1005500075F8002000F006F800F024F8002010BD27
:100560000020024070B50D4D04464FF47A71287892
:10057000B1FBF0F00A490968B1FBF0F000F0CCFAE9
:1005800048B9102C07D200222146501E00F036F840
:1005900000206C6070BD012070BD000010000020C4
:1005A0001C0000200C4808B5816941F001018161FF
:1005B000816901F001010091C16941F08051C1617F
:1005C000C06900F0805000900448416821F0E0616B
:1005D00041F00071416008BD001002400000014080
:1005E000002809DB00F01F02012191404009800032
:1005F00000F1E020C0F8001170470000F0B40E4B8D
:100600001B680C46C3F30223C3F10705042D00D970
:100610000425191D072901D2002300E0DB1E012655
:1006200006FA05F1491E214099409E40761E16406B
:100630003143F0BC00F025BB0CED00E0064900F0B2
:10064000070208684FF6FF03184040EA0220034AF9
:1006500010430860704700000CED00E00000FA0550
:100660002DE9F0470F46050061D0434E306800F099
:100670000700B84209D2306820F0070038433060E4
:10068000306800F00700B84251D128683B4C810720
:1006900012D5400703D5606840F4E06060602878B8
:1006A000000703D5606840F4605060606068A96826
:1006B00020F0F000084360602878C00728D0686800
:1006C000012810D02168022810D0890700292EDACD
:1006D000616821F0030101436160FFF723FF804659
:1006E00041F288390DE021688903EFE78901EDE7E0
:1006F000FFF718FFA0EB0801494502D90320BDE828
:10070000F0876068696800F00C00B0EB810FEFD1F2
:10071000306800F00700B8420BD9306820F00700BD
:1007200038433060306800F00700B84201D0012043
:10073000E5E72878400705D56068E96820F4E060BF
:10074000084360602878000706D56068296920F4AE
:10075000605040EAC100606000F018F86168084A23
:10076000C1F30311515CC84006490860064800689F
:10077000FFF7F8FE0020C2E7002002400010024010
:10078000CE0C00081C0000201400002012A185B02F
:100790000FC98DE80F0014A0144A00680490516836
:1007A000134801F00C03042B10D0082B0ED1C1F319
:1007B0008343C9031DF803000AD5516804AAC1F395
:1007C0004041515C0A4A5043B0FBF1F005B070471C
:1007D00008494843FAE70000020304050607080930
:1007E0000A0B0C0D0E0F1010010200000010024049
:1007F00000127A0000093D002DE9F84F040070D086
:100800002078C04DC00749D06868C0F38100012836
:1008100007D06868C0F38100022809D16868C00366
:1008200006D52868800339D560680028E7D035E010
:100830006068B0F5803F0BD010B1B0F5A02F11D09B
:10084000286820F480302860286820F4802002E0A6
:10085000286840F480302860606890B1FFF762FE3D
:1008600006460AE0286840F480202860F0E700BFD0
:10087000FFF758FE801B642873D828688003F7D5DB
:100880000CE0FFF74FFE064605E000BFFFF74AFE0B
:10089000801B6428F0D828688003F7D420789A4E0B
:1008A00080074FF001094FF0000839D5686810F053
:1008B0000C0F07D06868C0F38100022809D168686E
:1008C000C00306D42868800714D52069012808D100
:1008D00010E02069B0B1C6F80090FFF723FE07468C
:1008E00005E00AE1FFF71EFEC01B0228C4D82868F5
:1008F0008007F7D52868616920F0F80040EAC10058
:1009000028600DE0C6F80080FFF70CFE074604E003
:10091000FFF708FEC01B022823D828688007F7D4F9
:10092000207800072CD57948A169D9B1C0F800908A
:10093000FFF7F8FD074604E0FFF7F4FDC01B0228AF
:100940000FD8686A8007F7D571484FF4FA510068EC
:10095000B0FBF1F0009000BF0098411E0091FAD268
:100960000EE080E0C0F80080FFF7DCFD074604E001
:10097000FFF7D8FDC01B022875D8686A8007F7D436
:100980002078400760D5E8690027C00008D4E869EE
:1009900040F08050E861E869012700F08050009045
:1009A0005C480168C90513D40168834641F480712D
:1009B0000160FFF7B7FD824606E000BFFFF7B2FD1A
:1009C000A0EB0A0064284ED8DBF80000C005F5D57E
:1009D000E06801280AD008B1052813D0286A20F061
:1009E00001002862286A20F0040002E0286A40F032
:1009F00001002862E06841F2883B98B1FFF792FD60
:100A000082460BE0286A40F004002862EEE700BF4F
:100A1000FFF788FDA0EB0A0159455AD8286A8007DC
:100A2000F6D50CE0FFF77EFD824605E0FFF77AFD84
:100A3000A0EB0A0159454CD8286A8007F6D41FB1AB
:100A4000E86920F08050E861E06988B36968C1F323
:100A50008101022944D00228C6F8608004D0FFF743
:100A600061FD044638E034E0FFF75CFD074604E032
:100A7000FFF758FDC01B02282BD828688001F7D447
:100A8000206AB0F5803F05D16868A16820F4003085
:100A900008436860D4E908010843696821F47411C7
:100AA00008436860C6F86090FFF73CFD044606E026
:100AB00025E000BFFFF736FD001B022809D8286893
:100AC0008001F7D51BE000BFFFF72CFD001B0228BB
:100AD00002D90320BDE8F88F28688001F4D40EE025
:100AE0000128F7D06868226A00F48031914204D16D
:100AF000616A00F47010884201D00120EAE700200A
:100B0000E8E7000000100240000042428004424238
:100B10001C0000200070004010B5401EB0F1807F26
:100B200001D3012010BD4FF0E02460610F21601758
:100B300000F0A7F80020A06107202061002010BD70
:100B4000FEE7000070B586B000243148009401949F
:100B500002940394816941F010018161816901F07F
:100B600010010491816941F020018161816901F0E6
:100B700020010491816941F004018161816901F0E2
:100B800004010491816941F0080181618069214E6D
:100B900000F008004FF4005504900022294630462A
:100BA000FFF7BBFC01200095CDE901040220039072
:100BB00069463046FFF7BCFBA800CDE90004694652
:100BC00015480294FFF7B4FB282000901348CDE9A4
:100BD0000104134D69462846FFF7AAFB1020CDE912
:100BE0000004694628460294FFF7A2FB0022114642
:100BF0000920FFF703FD0920FFF7F2FC0022114650
:100C00001720FFF7FBFC1720FFF7EAFC06B070BDCA
:100C100000100240001001400008014000001110C7
:100C2000000C0140FEE7704770477047FFF780BC3B
:100C300030B58FB028216846FFF77BFA14210AA847
:100C4000FFF777FA01210804CDE90010002402948F
:100C500002250491CDE907504FF4E0100990684651
:100C6000FFF7CAFD0F20CDE90A056802CDE90C4067
:100C700002210AA80E94FFF7F3FC0FB030BD7047B5
:100C8000FEE70907090E002804DB00F1E02080F8E8
:100C90000014704700F00F0000F1E02080F8141DF0
:100CA000704702E008C8121F08C1002AFAD1704735
:100CB0007047002001E001C1121F002AFBD17047DC
:100CC000FFF73EFCFFF7B4FFFFF73CFFFEE7000035
:100CD00000000000000001020304060708090000EC
:100CE000000D00080000002020000000A20C0008F9
:100CF000200D00082000002000040000B20C0008B5
:100D000000000000000000000000000000000000E3
:100D10000100000010000000000000000024F400AA
:04000005080000ED02
:00000001FF
